{
  "_format": "hh-sol-artifact-1",
  "contractName": "EnergyMarketplace",
  "sourceName": "contracts/EnergyMarketplace.sol",
  "abi": [
    {
      "inputs": [
        {
          "internalType": "address",
          "name": "tokenAddress",
          "type": "address"
        }
      ],
      "stateMutability": "nonpayable",
      "type": "constructor"
    },
    {
      "inputs": [
        {
          "internalType": "address",
          "name": "owner",
          "type": "address"
        }
      ],
      "name": "OwnableInvalidOwner",
      "type": "error"
    },
    {
      "inputs": [
        {
          "internalType": "address",
          "name": "account",
          "type": "address"
        }
      ],
      "name": "OwnableUnauthorizedAccount",
      "type": "error"
    },
    {
      "anonymous": false,
      "inputs": [
        {
          "indexed": true,
          "internalType": "uint256",
          "name": "listingId",
          "type": "uint256"
        },
        {
          "indexed": true,
          "internalType": "address",
          "name": "seller",
          "type": "address"
        },
        {
          "indexed": false,
          "internalType": "uint256",
          "name": "amountETK",
          "type": "uint256"
        },
        {
          "indexed": false,
          "internalType": "uint256",
          "name": "priceWei",
          "type": "uint256"
        }
      ],
      "name": "EnergyListed",
      "type": "event"
    },
    {
      "anonymous": false,
      "inputs": [
        {
          "indexed": true,
          "internalType": "uint256",
          "name": "listingId",
          "type": "uint256"
        },
        {
          "indexed": true,
          "internalType": "address",
          "name": "buyer",
          "type": "address"
        },
        {
          "indexed": true,
          "internalType": "address",
          "name": "seller",
          "type": "address"
        },
        {
          "indexed": false,
          "internalType": "uint256",
          "name": "amountETK",
          "type": "uint256"
        },
        {
          "indexed": false,
          "internalType": "uint256",
          "name": "priceWei",
          "type": "uint256"
        }
      ],
      "name": "EnergyTraded",
      "type": "event"
    },
    {
      "anonymous": false,
      "inputs": [
        {
          "indexed": true,
          "internalType": "uint256",
          "name": "listingId",
          "type": "uint256"
        }
      ],
      "name": "ListingCancelled",
      "type": "event"
    },
    {
      "anonymous": false,
      "inputs": [
        {
          "indexed": true,
          "internalType": "address",
          "name": "previousOwner",
          "type": "address"
        },
        {
          "indexed": true,
          "internalType": "address",
          "name": "newOwner",
          "type": "address"
        }
      ],
      "name": "OwnershipTransferred",
      "type": "event"
    },
    {
      "inputs": [],
      "name": "FEE_PERCENT",
      "outputs": [
        {
          "internalType": "uint256",
          "name": "",
          "type": "uint256"
        }
      ],
      "stateMutability": "view",
      "type": "function"
    },
    {
      "inputs": [],
      "name": "POINTS_PER_TRADE",
      "outputs": [
        {
          "internalType": "uint256",
          "name": "",
          "type": "uint256"
        }
      ],
      "stateMutability": "view",
      "type": "function"
    },
    {
      "inputs": [
        {
          "internalType": "uint256",
          "name": "listingId",
          "type": "uint256"
        }
      ],
      "name": "buyEnergy",
      "outputs": [],
      "stateMutability": "payable",
      "type": "function"
    },
    {
      "inputs": [
        {
          "internalType": "uint256",
          "name": "listingId",
          "type": "uint256"
        }
      ],
      "name": "cancelListing",
      "outputs": [],
      "stateMutability": "nonpayable",
      "type": "function"
    },
    {
      "inputs": [],
      "name": "collectedFees",
      "outputs": [
        {
          "internalType": "uint256",
          "name": "",
          "type": "uint256"
        }
      ],
      "stateMutability": "view",
      "type": "function"
    },
    {
      "inputs": [],
      "name": "energyToken",
      "outputs": [
        {
          "internalType": "contract EToken",
          "name": "",
          "type": "address"
        }
      ],
      "stateMutability": "view",
      "type": "function"
    },
    {
      "inputs": [
        {
          "internalType": "address",
          "name": "user",
          "type": "address"
        }
      ],
      "name": "getDiscount",
      "outputs": [
        {
          "internalType": "uint256",
          "name": "",
          "type": "uint256"
        }
      ],
      "stateMutability": "view",
      "type": "function"
    },
    {
      "inputs": [
        {
          "internalType": "uint256",
          "name": "listingId",
          "type": "uint256"
        }
      ],
      "name": "getListing",
      "outputs": [
        {
          "internalType": "address",
          "name": "seller",
          "type": "address"
        },
        {
          "internalType": "uint256",
          "name": "amountETK",
          "type": "uint256"
        },
        {
          "internalType": "uint256",
          "name": "priceWei",
          "type": "uint256"
        },
        {
          "internalType": "bool",
          "name": "isActive",
          "type": "bool"
        }
      ],
      "stateMutability": "view",
      "type": "function"
    },
    {
      "inputs": [
        {
          "internalType": "uint256",
          "name": "amountETK",
          "type": "uint256"
        },
        {
          "internalType": "uint256",
          "name": "priceWei",
          "type": "uint256"
        }
      ],
      "name": "listEnergy",
      "outputs": [],
      "stateMutability": "nonpayable",
      "type": "function"
    },
    {
      "inputs": [],
      "name": "listingCount",
      "outputs": [
        {
          "internalType": "uint256",
          "name": "",
          "type": "uint256"
        }
      ],
      "stateMutability": "view",
      "type": "function"
    },
    {
      "inputs": [
        {
          "internalType": "uint256",
          "name": "",
          "type": "uint256"
        }
      ],
      "name": "listings",
      "outputs": [
        {
          "internalType": "address",
          "name": "seller",
          "type": "address"
        },
        {
          "internalType": "uint256",
          "name": "amountETK",
          "type": "uint256"
        },
        {
          "internalType": "uint256",
          "name": "priceWei",
          "type": "uint256"
        },
        {
          "internalType": "bool",
          "name": "isActive",
          "type": "bool"
        }
      ],
      "stateMutability": "view",
      "type": "function"
    },
    {
      "inputs": [
        {
          "internalType": "address",
          "name": "",
          "type": "address"
        }
      ],
      "name": "loyaltyPoints",
      "outputs": [
        {
          "internalType": "uint256",
          "name": "",
          "type": "uint256"
        }
      ],
      "stateMutability": "view",
      "type": "function"
    },
    {
      "inputs": [],
      "name": "owner",
      "outputs": [
        {
          "internalType": "address",
          "name": "",
          "type": "address"
        }
      ],
      "stateMutability": "view",
      "type": "function"
    },
    {
      "inputs": [],
      "name": "renounceOwnership",
      "outputs": [],
      "stateMutability": "nonpayable",
      "type": "function"
    },
    {
      "inputs": [
        {
          "internalType": "address",
          "name": "newOwner",
          "type": "address"
        }
      ],
      "name": "transferOwnership",
      "outputs": [],
      "stateMutability": "nonpayable",
      "type": "function"
    },
    {
      "inputs": [],
      "name": "withdrawFees",
      "outputs": [],
      "stateMutability": "nonpayable",
      "type": "function"
    }
  ],
  "bytecode": "0x608060405234801561001057600080fd5b50604051611cba380380611cba83398181016040528101906100329190610223565b33600073ffffffffffffffffffffffffffffffffffffffff168173ffffffffffffffffffffffffffffffffffffffff16036100a55760006040517f1e4fbdf700000000000000000000000000000000000000000000000000000000815260040161009c919061025f565b60405180910390fd5b6100b4816100fc60201b60201c565b5080600160006101000a81548173ffffffffffffffffffffffffffffffffffffffff021916908373ffffffffffffffffffffffffffffffffffffffff1602179055505061027a565b60008060009054906101000a900473ffffffffffffffffffffffffffffffffffffffff169050816000806101000a81548173ffffffffffffffffffffffffffffffffffffffff021916908373ffffffffffffffffffffffffffffffffffffffff1602179055508173ffffffffffffffffffffffffffffffffffffffff168173ffffffffffffffffffffffffffffffffffffffff167f8be0079c531659141344cd1fd0a4f28419497f9722a3daafe3b4186f6b6457e060405160405180910390a35050565b600080fd5b600073ffffffffffffffffffffffffffffffffffffffff82169050919050565b60006101f0826101c5565b9050919050565b610200816101e5565b811461020b57600080fd5b50565b60008151905061021d816101f7565b92915050565b600060208284031215610239576102386101c0565b5b60006102478482850161020e565b91505092915050565b610259816101e5565b82525050565b60006020820190506102746000830184610250565b92915050565b611a31806102896000396000f3fe6080604052600436106100f35760003560e01c80639003adfe1161008a578063d45e425911610059578063d45e4259146102e8578063de74e57b14610325578063eaf98d2314610365578063f2fde38b14610390576100f3565b80639003adfe1461024d578063a9b07c2614610278578063bc8a251f146102a3578063c8a9fb5e146102bf576100f3565b80634ec7fb81116100c65780634ec7fb81146101b5578063670bef2e146101e0578063715018a61461020b5780638da5cb5b14610222576100f3565b806306f2791a146100f8578063107a274a14610135578063305a67a814610175578063476343ee1461019e575b600080fd5b34801561010457600080fd5b5061011f600480360381019061011a91906111e3565b6103b9565b60405161012c9190611229565b60405180910390f35b34801561014157600080fd5b5061015c60048036038101906101579190611270565b61043f565b60405161016c94939291906112c7565b60405180910390f35b34801561018157600080fd5b5061019c60048036038101906101979190611270565b6104ad565b005b3480156101aa57600080fd5b506101b36106ad565b005b3480156101c157600080fd5b506101ca61077b565b6040516101d7919061136b565b60405180910390f35b3480156101ec57600080fd5b506101f56107a1565b6040516102029190611229565b60405180910390f35b34801561021757600080fd5b506102206107a6565b005b34801561022e57600080fd5b506102376107ba565b6040516102449190611386565b60405180910390f35b34801561025957600080fd5b506102626107e3565b60405161026f9190611229565b60405180910390f35b34801561028457600080fd5b5061028d6107e9565b60405161029a9190611229565b60405180910390f35b6102bd60048036038101906102b89190611270565b6107ef565b005b3480156102cb57600080fd5b506102e660048036038101906102e191906113a1565b610cb5565b005b3480156102f457600080fd5b5061030f600480360381019061030a91906111e3565b610f2d565b60405161031c9190611229565b60405180910390f35b34801561033157600080fd5b5061034c60048036038101906103479190611270565b610f45565b60405161035c94939291906112c7565b60405180910390f35b34801561037157600080fd5b5061037a610fa2565b6040516103879190611229565b60405180910390f35b34801561039c57600080fd5b506103b760048036038101906103b291906111e3565b610fa7565b005b600080600460008473ffffffffffffffffffffffffffffffffffffffff1673ffffffffffffffffffffffffffffffffffffffff1681526020019081526020016000205490506064811061041057603291505061043a565b6032811061042257601991505061043a565b600a811061043457600a91505061043a565b60009150505b919050565b60008060008060006002600087815260200190815260200160002090508060000160009054906101000a900473ffffffffffffffffffffffffffffffffffffffff16816001015482600201548360030160009054906101000a900460ff169450945094509450509193509193565b60006002600083815260200190815260200160002090508060030160009054906101000a900460ff16610515576040517f08c379a000000000000000000000000000000000000000000000000000000000815260040161050c9061143e565b60405180910390fd5b8060000160009054906101000a900473ffffffffffffffffffffffffffffffffffffffff1673ffffffffffffffffffffffffffffffffffffffff163373ffffffffffffffffffffffffffffffffffffffff16146105a7576040517f08c379a000000000000000000000000000000000000000000000000000000000815260040161059e906114aa565b60405180910390fd5b60008160030160006101000a81548160ff021916908315150217905550600160009054906101000a900473ffffffffffffffffffffffffffffffffffffffff1673ffffffffffffffffffffffffffffffffffffffff1663a9059cbb33670de0b6b3a7640000846001015461061b91906114f9565b6040518363ffffffff1660e01b815260040161063892919061153b565b6020604051808303816000875af1158015610657573d6000803e3d6000fd5b505050506040513d601f19601f8201168201806040525081019061067b9190611590565b50817f411aee90354c51b1b04cd563fcab2617142a9d50da19232d888547c8a1b7fd8a60405160405180910390a25050565b6106b561102d565b60006005549050600060058190555060006106ce6107ba565b73ffffffffffffffffffffffffffffffffffffffff16826040516106f1906115ee565b60006040518083038185875af1925050503d806000811461072e576040519150601f19603f3d011682016040523d82523d6000602084013e610733565b606091505b5050905080610777576040517f08c379a000000000000000000000000000000000000000000000000000000000815260040161076e9061164f565b60405180910390fd5b5050565b600160009054906101000a900473ffffffffffffffffffffffffffffffffffffffff1681565b600a81565b6107ae61102d565b6107b860006110b4565b565b60008060009054906101000a900473ffffffffffffffffffffffffffffffffffffffff16905090565b60055481565b60035481565b60006002600083815260200190815260200160002090508060030160009054906101000a900460ff16610857576040517f08c379a000000000000000000000000000000000000000000000000000000000815260040161084e9061143e565b60405180910390fd5b8060000160009054906101000a900473ffffffffffffffffffffffffffffffffffffffff1673ffffffffffffffffffffffffffffffffffffffff163373ffffffffffffffffffffffffffffffffffffffff16036108e9576040517f08c379a00000000000000000000000000000000000000000000000000000000081526004016108e0906116bb565b60405180910390fd5b8060020154341461092f576040517f08c379a000000000000000000000000000000000000000000000000000000000815260040161092690611727565b60405180910390fd5b600061093a336103b9565b9050600061271082606461094e9190611747565b6002856002015461095f91906114f9565b61096991906114f9565b61097391906117aa565b905060008184600201546109879190611747565b905060008460030160006101000a81548160ff02191690831515021790555081600560008282546109b891906117db565b92505081905550600160009054906101000a900473ffffffffffffffffffffffffffffffffffffffff1673ffffffffffffffffffffffffffffffffffffffff1663a9059cbb33670de0b6b3a76400008760010154610a1691906114f9565b6040518363ffffffff1660e01b8152600401610a3392919061153b565b6020604051808303816000875af1158015610a52573d6000803e3d6000fd5b505050506040513d601f19601f82011682018060405250810190610a769190611590565b5060008460000160009054906101000a900473ffffffffffffffffffffffffffffffffffffffff1673ffffffffffffffffffffffffffffffffffffffff1682604051610ac1906115ee565b60006040518083038185875af1925050503d8060008114610afe576040519150601f19603f3d011682016040523d82523d6000602084013e610b03565b606091505b5050905080610b47576040517f08c379a0000000000000000000000000000000000000000000000000000000008152600401610b3e9061185b565b60405180910390fd5b600a600460003373ffffffffffffffffffffffffffffffffffffffff1673ffffffffffffffffffffffffffffffffffffffff1681526020019081526020016000206000828254610b9791906117db565b92505081905550600a600460008760000160009054906101000a900473ffffffffffffffffffffffffffffffffffffffff1673ffffffffffffffffffffffffffffffffffffffff1673ffffffffffffffffffffffffffffffffffffffff1681526020019081526020016000206000828254610c1291906117db565b925050819055508460000160009054906101000a900473ffffffffffffffffffffffffffffffffffffffff1673ffffffffffffffffffffffffffffffffffffffff163373ffffffffffffffffffffffffffffffffffffffff16877fe05af05232f23cc43299fb33727e918a136760e0c1a7e104f141977f9cd642dd88600101548960020154604051610ca592919061187b565b60405180910390a4505050505050565b60008211610cf8576040517f08c379a0000000000000000000000000000000000000000000000000000000008152600401610cef906118f0565b60405180910390fd5b60008111610d3b576040517f08c379a0000000000000000000000000000000000000000000000000000000008152600401610d329061195c565b60405180910390fd5b600160009054906101000a900473ffffffffffffffffffffffffffffffffffffffff1673ffffffffffffffffffffffffffffffffffffffff166323b872dd3330670de0b6b3a764000086610d8f91906114f9565b6040518463ffffffff1660e01b8152600401610dad9392919061197c565b6020604051808303816000875af1158015610dcc573d6000803e3d6000fd5b505050506040513d601f19601f82011682018060405250810190610df09190611590565b5060405180608001604052803373ffffffffffffffffffffffffffffffffffffffff1681526020018381526020018281526020016001151581525060026000600354815260200190815260200160002060008201518160000160006101000a81548173ffffffffffffffffffffffffffffffffffffffff021916908373ffffffffffffffffffffffffffffffffffffffff160217905550602082015181600101556040820151816002015560608201518160030160006101000a81548160ff0219169083151502179055509050503373ffffffffffffffffffffffffffffffffffffffff166003547fdce237255d5bd98b57c816861c3b76c8e47e10382084f482135e29cb83a534be8484604051610f0992919061187b565b60405180910390a360036000815480929190610f24906119b3565b91905055505050565b60046020528060005260406000206000915090505481565b60026020528060005260406000206000915090508060000160009054906101000a900473ffffffffffffffffffffffffffffffffffffffff16908060010154908060020154908060030160009054906101000a900460ff16905084565b600281565b610faf61102d565b600073ffffffffffffffffffffffffffffffffffffffff168173ffffffffffffffffffffffffffffffffffffffff16036110215760006040517f1e4fbdf70000000000000000000000000000000000000000000000000000000081526004016110189190611386565b60405180910390fd5b61102a816110b4565b50565b611035611178565b73ffffffffffffffffffffffffffffffffffffffff166110536107ba565b73ffffffffffffffffffffffffffffffffffffffff16146110b257611076611178565b6040517f118cdaa70000000000000000000000000000000000000000000000000000000081526004016110a99190611386565b60405180910390fd5b565b60008060009054906101000a900473ffffffffffffffffffffffffffffffffffffffff169050816000806101000a81548173ffffffffffffffffffffffffffffffffffffffff021916908373ffffffffffffffffffffffffffffffffffffffff1602179055508173ffffffffffffffffffffffffffffffffffffffff168173ffffffffffffffffffffffffffffffffffffffff167f8be0079c531659141344cd1fd0a4f28419497f9722a3daafe3b4186f6b6457e060405160405180910390a35050565b600033905090565b600080fd5b600073ffffffffffffffffffffffffffffffffffffffff82169050919050565b60006111b082611185565b9050919050565b6111c0816111a5565b81146111cb57600080fd5b50565b6000813590506111dd816111b7565b92915050565b6000602082840312156111f9576111f8611180565b5b6000611207848285016111ce565b91505092915050565b6000819050919050565b61122381611210565b82525050565b600060208201905061123e600083018461121a565b92915050565b61124d81611210565b811461125857600080fd5b50565b60008135905061126a81611244565b92915050565b60006020828403121561128657611285611180565b5b60006112948482850161125b565b91505092915050565b6112a6816111a5565b82525050565b60008115159050919050565b6112c1816112ac565b82525050565b60006080820190506112dc600083018761129d565b6112e9602083018661121a565b6112f6604083018561121a565b61130360608301846112b8565b95945050505050565b6000819050919050565b600061133161132c61132784611185565b61130c565b611185565b9050919050565b600061134382611316565b9050919050565b600061135582611338565b9050919050565b6113658161134a565b82525050565b6000602082019050611380600083018461135c565b92915050565b600060208201905061139b600083018461129d565b92915050565b600080604083850312156113b8576113b7611180565b5b60006113c68582860161125b565b92505060206113d78582860161125b565b9150509250929050565b600082825260208201905092915050565b7f4c697374696e67206973206e6f74206163746976650000000000000000000000600082015250565b60006114286015836113e1565b9150611433826113f2565b602082019050919050565b600060208201905081810360008301526114578161141b565b9050919050565b7f4f6e6c792073656c6c65722063616e2063616e63656c00000000000000000000600082015250565b60006114946016836113e1565b915061149f8261145e565b602082019050919050565b600060208201905081810360008301526114c381611487565b9050919050565b7f4e487b7100000000000000000000000000000000000000000000000000000000600052601160045260246000fd5b600061150482611210565b915061150f83611210565b925082820261151d81611210565b91508282048414831517611534576115336114ca565b5b5092915050565b6000604082019050611550600083018561129d565b61155d602083018461121a565b9392505050565b61156d816112ac565b811461157857600080fd5b50565b60008151905061158a81611564565b92915050565b6000602082840312156115a6576115a5611180565b5b60006115b48482850161157b565b91505092915050565b600081905092915050565b50565b60006115d86000836115bd565b91506115e3826115c8565b600082019050919050565b60006115f9826115cb565b9150819050919050565b7f5769746864726177616c206661696c6564000000000000000000000000000000600082015250565b60006116396011836113e1565b915061164482611603565b602082019050919050565b600060208201905081810360008301526116688161162c565b9050919050565b7f53656c6c65722063616e6e6f7420627579206f776e206c697374696e67000000600082015250565b60006116a5601d836113e1565b91506116b08261166f565b602082019050919050565b600060208201905081810360008301526116d481611698565b9050919050565b7f496e636f72726563742045544820616d6f756e74000000000000000000000000600082015250565b60006117116014836113e1565b915061171c826116db565b602082019050919050565b6000602082019050818103600083015261174081611704565b9050919050565b600061175282611210565b915061175d83611210565b9250828203905081811115611775576117746114ca565b5b92915050565b7f4e487b7100000000000000000000000000000000000000000000000000000000600052601260045260246000fd5b60006117b582611210565b91506117c083611210565b9250826117d0576117cf61177b565b5b828204905092915050565b60006117e682611210565b91506117f183611210565b9250828201905080821115611809576118086114ca565b5b92915050565b7f455448207472616e73666572206661696c656400000000000000000000000000600082015250565b60006118456013836113e1565b91506118508261180f565b602082019050919050565b6000602082019050818103600083015261187481611838565b9050919050565b6000604082019050611890600083018561121a565b61189d602083018461121a565b9392505050565b7f416d6f756e74206d7573742062652067726561746572207468616e2030000000600082015250565b60006118da601d836113e1565b91506118e5826118a4565b602082019050919050565b60006020820190508181036000830152611909816118cd565b9050919050565b7f5072696365206d7573742062652067726561746572207468616e203000000000600082015250565b6000611946601c836113e1565b915061195182611910565b602082019050919050565b6000602082019050818103600083015261197581611939565b9050919050565b6000606082019050611991600083018661129d565b61199e602083018561129d565b6119ab604083018461121a565b949350505050565b60006119be82611210565b91507fffffffffffffffffffffffffffffffffffffffffffffffffffffffffffffffff82036119f0576119ef6114ca565b5b60018201905091905056fea26469706673582212200f73b6b70112c191a4dbc45808177d4469fa977426745fb65b1f6a446d3159e464736f6c634300081c0033",
  "linkReferences": {},
  "deployedLinkReferences": {}
}