{
  "_format": "hh-sol-artifact-1",
  "contractName": "EnergyMarketplace",
  "sourceName": "contracts/EnergyMarketplace.sol",
  "abi": [
    {
      "inputs": [
        {
          "internalType": "address",
          "name": "tokenAddress",
          "type": "address"
        }
      ],
      "stateMutability": "nonpayable",
      "type": "constructor"
    },
    {
      "inputs": [
        {
          "internalType": "address",
          "name": "owner",
          "type": "address"
        }
      ],
      "name": "OwnableInvalidOwner",
      "type": "error"
    },
    {
      "inputs": [
        {
          "internalType": "address",
          "name": "account",
          "type": "address"
        }
      ],
      "name": "OwnableUnauthorizedAccount",
      "type": "error"
    },
    {
      "inputs": [],
      "name": "ReentrancyGuardReentrantCall",
      "type": "error"
    },
    {
      "anonymous": false,
      "inputs": [
        {
          "indexed": true,
          "internalType": "uint256",
          "name": "listingId",
          "type": "uint256"
        },
        {
          "indexed": true,
          "internalType": "address",
          "name": "seller",
          "type": "address"
        },
        {
          "indexed": false,
          "internalType": "uint256",
          "name": "amountETK",
          "type": "uint256"
        },
        {
          "indexed": false,
          "internalType": "uint256",
          "name": "priceWei",
          "type": "uint256"
        }
      ],
      "name": "EnergyListed",
      "type": "event"
    },
    {
      "anonymous": false,
      "inputs": [
        {
          "indexed": true,
          "internalType": "uint256",
          "name": "listingId",
          "type": "uint256"
        },
        {
          "indexed": true,
          "internalType": "address",
          "name": "buyer",
          "type": "address"
        },
        {
          "indexed": true,
          "internalType": "address",
          "name": "seller",
          "type": "address"
        },
        {
          "indexed": false,
          "internalType": "uint256",
          "name": "amountETK",
          "type": "uint256"
        },
        {
          "indexed": false,
          "internalType": "uint256",
          "name": "priceWei",
          "type": "uint256"
        }
      ],
      "name": "EnergyTraded",
      "type": "event"
    },
    {
      "anonymous": false,
      "inputs": [
        {
          "indexed": true,
          "internalType": "uint256",
          "name": "listingId",
          "type": "uint256"
        }
      ],
      "name": "ListingCancelled",
      "type": "event"
    },
    {
      "anonymous": false,
      "inputs": [
        {
          "indexed": true,
          "internalType": "address",
          "name": "previousOwner",
          "type": "address"
        },
        {
          "indexed": true,
          "internalType": "address",
          "name": "newOwner",
          "type": "address"
        }
      ],
      "name": "OwnershipTransferred",
      "type": "event"
    },
    {
      "inputs": [],
      "name": "FEE_PERCENT",
      "outputs": [
        {
          "internalType": "uint256",
          "name": "",
          "type": "uint256"
        }
      ],
      "stateMutability": "view",
      "type": "function"
    },
    {
      "inputs": [],
      "name": "POINTS_PER_TRADE",
      "outputs": [
        {
          "internalType": "uint256",
          "name": "",
          "type": "uint256"
        }
      ],
      "stateMutability": "view",
      "type": "function"
    },
    {
      "inputs": [
        {
          "internalType": "uint256",
          "name": "listingId",
          "type": "uint256"
        }
      ],
      "name": "buyEnergy",
      "outputs": [],
      "stateMutability": "payable",
      "type": "function"
    },
    {
      "inputs": [
        {
          "internalType": "uint256",
          "name": "listingId",
          "type": "uint256"
        }
      ],
      "name": "cancelListing",
      "outputs": [],
      "stateMutability": "nonpayable",
      "type": "function"
    },
    {
      "inputs": [],
      "name": "collectedFees",
      "outputs": [
        {
          "internalType": "uint256",
          "name": "",
          "type": "uint256"
        }
      ],
      "stateMutability": "view",
      "type": "function"
    },
    {
      "inputs": [],
      "name": "energyToken",
      "outputs": [
        {
          "internalType": "contract EToken",
          "name": "",
          "type": "address"
        }
      ],
      "stateMutability": "view",
      "type": "function"
    },
    {
      "inputs": [
        {
          "internalType": "address",
          "name": "user",
          "type": "address"
        }
      ],
      "name": "getDiscount",
      "outputs": [
        {
          "internalType": "uint256",
          "name": "",
          "type": "uint256"
        }
      ],
      "stateMutability": "view",
      "type": "function"
    },
    {
      "inputs": [
        {
          "internalType": "uint256",
          "name": "listingId",
          "type": "uint256"
        }
      ],
      "name": "getListing",
      "outputs": [
        {
          "internalType": "address",
          "name": "seller",
          "type": "address"
        },
        {
          "internalType": "uint256",
          "name": "amountETK",
          "type": "uint256"
        },
        {
          "internalType": "uint256",
          "name": "priceWei",
          "type": "uint256"
        },
        {
          "internalType": "bool",
          "name": "isActive",
          "type": "bool"
        }
      ],
      "stateMutability": "view",
      "type": "function"
    },
    {
      "inputs": [
        {
          "internalType": "uint256",
          "name": "amountETK",
          "type": "uint256"
        },
        {
          "internalType": "uint256",
          "name": "priceWei",
          "type": "uint256"
        }
      ],
      "name": "listEnergy",
      "outputs": [],
      "stateMutability": "nonpayable",
      "type": "function"
    },
    {
      "inputs": [],
      "name": "listingCount",
      "outputs": [
        {
          "internalType": "uint256",
          "name": "",
          "type": "uint256"
        }
      ],
      "stateMutability": "view",
      "type": "function"
    },
    {
      "inputs": [
        {
          "internalType": "uint256",
          "name": "",
          "type": "uint256"
        }
      ],
      "name": "listings",
      "outputs": [
        {
          "internalType": "address",
          "name": "seller",
          "type": "address"
        },
        {
          "internalType": "uint256",
          "name": "amountETK",
          "type": "uint256"
        },
        {
          "internalType": "uint256",
          "name": "priceWei",
          "type": "uint256"
        },
        {
          "internalType": "bool",
          "name": "isActive",
          "type": "bool"
        }
      ],
      "stateMutability": "view",
      "type": "function"
    },
    {
      "inputs": [
        {
          "internalType": "address",
          "name": "",
          "type": "address"
        }
      ],
      "name": "loyaltyPoints",
      "outputs": [
        {
          "internalType": "uint256",
          "name": "",
          "type": "uint256"
        }
      ],
      "stateMutability": "view",
      "type": "function"
    },
    {
      "inputs": [],
      "name": "owner",
      "outputs": [
        {
          "internalType": "address",
          "name": "",
          "type": "address"
        }
      ],
      "stateMutability": "view",
      "type": "function"
    },
    {
      "inputs": [],
      "name": "renounceOwnership",
      "outputs": [],
      "stateMutability": "nonpayable",
      "type": "function"
    },
    {
      "inputs": [
        {
          "internalType": "address",
          "name": "newOwner",
          "type": "address"
        }
      ],
      "name": "transferOwnership",
      "outputs": [],
      "stateMutability": "nonpayable",
      "type": "function"
    },
    {
      "inputs": [],
      "name": "withdrawFees",
      "outputs": [],
      "stateMutability": "nonpayable",
      "type": "function"
    }
  ],
  "bytecode": "0x608060405234801561001057600080fd5b50604051611eb5380380611eb58339818101604052810190610032919061027d565b33600073ffffffffffffffffffffffffffffffffffffffff168173ffffffffffffffffffffffffffffffffffffffff16036100a55760006040517f1e4fbdf700000000000000000000000000000000000000000000000000000000815260040161009c91906102b9565b60405180910390fd5b6100b48161012160201b60201c565b5060016100d36100c86101e560201b60201c565b61021060201b60201c565b6000018190555080600160006101000a81548173ffffffffffffffffffffffffffffffffffffffff021916908373ffffffffffffffffffffffffffffffffffffffff160217905550506102d4565b60008060009054906101000a900473ffffffffffffffffffffffffffffffffffffffff169050816000806101000a81548173ffffffffffffffffffffffffffffffffffffffff021916908373ffffffffffffffffffffffffffffffffffffffff1602179055508173ffffffffffffffffffffffffffffffffffffffff168173ffffffffffffffffffffffffffffffffffffffff167f8be0079c531659141344cd1fd0a4f28419497f9722a3daafe3b4186f6b6457e060405160405180910390a35050565b60007f9b779b17422d0df92223018b32b4d1fa46e071723d6817e2486d003becc55f0060001b905090565b6000819050919050565b600080fd5b600073ffffffffffffffffffffffffffffffffffffffff82169050919050565b600061024a8261021f565b9050919050565b61025a8161023f565b811461026557600080fd5b50565b60008151905061027781610251565b92915050565b6000602082840312156102935761029261021a565b5b60006102a184828501610268565b91505092915050565b6102b38161023f565b82525050565b60006020820190506102ce60008301846102aa565b92915050565b611bd2806102e36000396000f3fe6080604052600436106100f35760003560e01c80639003adfe1161008a578063d45e425911610059578063d45e4259146102e8578063de74e57b14610325578063eaf98d2314610365578063f2fde38b14610390576100f3565b80639003adfe1461024d578063a9b07c2614610278578063bc8a251f146102a3578063c8a9fb5e146102bf576100f3565b80634ec7fb81116100c65780634ec7fb81146101b5578063670bef2e146101e0578063715018a61461020b5780638da5cb5b14610222576100f3565b806306f2791a146100f8578063107a274a14610135578063305a67a814610175578063476343ee1461019e575b600080fd5b34801561010457600080fd5b5061011f600480360381019061011a9190611318565b6103b9565b60405161012c919061135e565b60405180910390f35b34801561014157600080fd5b5061015c600480360381019061015791906113a5565b61043f565b60405161016c94939291906113fc565b60405180910390f35b34801561018157600080fd5b5061019c600480360381019061019791906113a5565b6104ad565b005b3480156101aa57600080fd5b506101b36106ad565b005b3480156101c157600080fd5b506101ca6107ce565b6040516101d791906114a0565b60405180910390f35b3480156101ec57600080fd5b506101f56107f4565b604051610202919061135e565b60405180910390f35b34801561021757600080fd5b506102206107f9565b005b34801561022e57600080fd5b5061023761080d565b60405161024491906114bb565b60405180910390f35b34801561025957600080fd5b50610262610836565b60405161026f919061135e565b60405180910390f35b34801561028457600080fd5b5061028d61083c565b60405161029a919061135e565b60405180910390f35b6102bd60048036038101906102b891906113a5565b610842565b005b3480156102cb57600080fd5b506102e660048036038101906102e191906114d6565b610d18565b005b3480156102f457600080fd5b5061030f600480360381019061030a9190611318565b610f90565b60405161031c919061135e565b60405180910390f35b34801561033157600080fd5b5061034c600480360381019061034791906113a5565b610fa8565b60405161035c94939291906113fc565b60405180910390f35b34801561037157600080fd5b5061037a611005565b604051610387919061135e565b60405180910390f35b34801561039c57600080fd5b506103b760048036038101906103b29190611318565b61100a565b005b600080600460008473ffffffffffffffffffffffffffffffffffffffff1673ffffffffffffffffffffffffffffffffffffffff1681526020019081526020016000205490506064811061041057603291505061043a565b6032811061042257601991505061043a565b600a811061043457600a91505061043a565b60009150505b919050565b60008060008060006002600087815260200190815260200160002090508060000160009054906101000a900473ffffffffffffffffffffffffffffffffffffffff16816001015482600201548360030160009054906101000a900460ff169450945094509450509193509193565b60006002600083815260200190815260200160002090508060030160009054906101000a900460ff16610515576040517f08c379a000000000000000000000000000000000000000000000000000000000815260040161050c90611573565b60405180910390fd5b8060000160009054906101000a900473ffffffffffffffffffffffffffffffffffffffff1673ffffffffffffffffffffffffffffffffffffffff163373ffffffffffffffffffffffffffffffffffffffff16146105a7576040517f08c379a000000000000000000000000000000000000000000000000000000000815260040161059e906115df565b60405180910390fd5b60008160030160006101000a81548160ff021916908315150217905550600160009054906101000a900473ffffffffffffffffffffffffffffffffffffffff1673ffffffffffffffffffffffffffffffffffffffff1663a9059cbb33670de0b6b3a7640000846001015461061b919061162e565b6040518363ffffffff1660e01b8152600401610638929190611670565b6020604051808303816000875af1158015610657573d6000803e3d6000fd5b505050506040513d601f19601f8201168201806040525081019061067b91906116c5565b50817f411aee90354c51b1b04cd563fcab2617142a9d50da19232d888547c8a1b7fd8a60405160405180910390a25050565b6106b5611090565b6106bd611117565b6000600554905060008111610707576040517f08c379a00000000000000000000000000000000000000000000000000000000081526004016106fe9061173e565b60405180910390fd5b6000600581905550600061071961080d565b73ffffffffffffffffffffffffffffffffffffffff168260405161073c9061178f565b60006040518083038185875af1925050503d8060008114610779576040519150601f19603f3d011682016040523d82523d6000602084013e61077e565b606091505b50509050806107c2576040517f08c379a00000000000000000000000000000000000000000000000000000000081526004016107b9906117f0565b60405180910390fd5b50506107cc61113a565b565b600160009054906101000a900473ffffffffffffffffffffffffffffffffffffffff1681565b600a81565b610801611090565b61080b6000611155565b565b60008060009054906101000a900473ffffffffffffffffffffffffffffffffffffffff16905090565b60055481565b60035481565b61084a611117565b60006002600083815260200190815260200160002090508060030160009054906101000a900460ff166108b2576040517f08c379a00000000000000000000000000000000000000000000000000000000081526004016108a990611573565b60405180910390fd5b8060000160009054906101000a900473ffffffffffffffffffffffffffffffffffffffff1673ffffffffffffffffffffffffffffffffffffffff163373ffffffffffffffffffffffffffffffffffffffff1603610944576040517f08c379a000000000000000000000000000000000000000000000000000000000815260040161093b9061185c565b60405180910390fd5b8060020154341461098a576040517f08c379a0000000000000000000000000000000000000000000000000000000008152600401610981906118c8565b60405180910390fd5b6000610995336103b9565b905060006127108260646109a991906118e8565b600285600201546109ba919061162e565b6109c4919061162e565b6109ce919061194b565b905060008184600201546109e291906118e8565b905060008460030160006101000a81548160ff0219169083151502179055508160056000828254610a13919061197c565b92505081905550600160009054906101000a900473ffffffffffffffffffffffffffffffffffffffff1673ffffffffffffffffffffffffffffffffffffffff1663a9059cbb33670de0b6b3a76400008760010154610a71919061162e565b6040518363ffffffff1660e01b8152600401610a8e929190611670565b6020604051808303816000875af1158015610aad573d6000803e3d6000fd5b505050506040513d601f19601f82011682018060405250810190610ad191906116c5565b5060008460000160009054906101000a900473ffffffffffffffffffffffffffffffffffffffff1673ffffffffffffffffffffffffffffffffffffffff1682604051610b1c9061178f565b60006040518083038185875af1925050503d8060008114610b59576040519150601f19603f3d011682016040523d82523d6000602084013e610b5e565b606091505b5050905080610ba2576040517f08c379a0000000000000000000000000000000000000000000000000000000008152600401610b99906119fc565b60405180910390fd5b600a600460003373ffffffffffffffffffffffffffffffffffffffff1673ffffffffffffffffffffffffffffffffffffffff1681526020019081526020016000206000828254610bf2919061197c565b92505081905550600a600460008760000160009054906101000a900473ffffffffffffffffffffffffffffffffffffffff1673ffffffffffffffffffffffffffffffffffffffff1673ffffffffffffffffffffffffffffffffffffffff1681526020019081526020016000206000828254610c6d919061197c565b925050819055508460000160009054906101000a900473ffffffffffffffffffffffffffffffffffffffff1673ffffffffffffffffffffffffffffffffffffffff163373ffffffffffffffffffffffffffffffffffffffff16877fe05af05232f23cc43299fb33727e918a136760e0c1a7e104f141977f9cd642dd88600101548960020154604051610d00929190611a1c565b60405180910390a45050505050610d1561113a565b50565b60008211610d5b576040517f08c379a0000000000000000000000000000000000000000000000000000000008152600401610d5290611a91565b60405180910390fd5b60008111610d9e576040517f08c379a0000000000000000000000000000000000000000000000000000000008152600401610d9590611afd565b60405180910390fd5b600160009054906101000a900473ffffffffffffffffffffffffffffffffffffffff1673ffffffffffffffffffffffffffffffffffffffff166323b872dd3330670de0b6b3a764000086610df2919061162e565b6040518463ffffffff1660e01b8152600401610e1093929190611b1d565b6020604051808303816000875af1158015610e2f573d6000803e3d6000fd5b505050506040513d601f19601f82011682018060405250810190610e5391906116c5565b5060405180608001604052803373ffffffffffffffffffffffffffffffffffffffff1681526020018381526020018281526020016001151581525060026000600354815260200190815260200160002060008201518160000160006101000a81548173ffffffffffffffffffffffffffffffffffffffff021916908373ffffffffffffffffffffffffffffffffffffffff160217905550602082015181600101556040820151816002015560608201518160030160006101000a81548160ff0219169083151502179055509050503373ffffffffffffffffffffffffffffffffffffffff166003547fdce237255d5bd98b57c816861c3b76c8e47e10382084f482135e29cb83a534be8484604051610f6c929190611a1c565b60405180910390a360036000815480929190610f8790611b54565b91905055505050565b60046020528060005260406000206000915090505481565b60026020528060005260406000206000915090508060000160009054906101000a900473ffffffffffffffffffffffffffffffffffffffff16908060010154908060020154908060030160009054906101000a900460ff16905084565b600281565b611012611090565b600073ffffffffffffffffffffffffffffffffffffffff168173ffffffffffffffffffffffffffffffffffffffff16036110845760006040517f1e4fbdf700000000000000000000000000000000000000000000000000000000815260040161107b91906114bb565b60405180910390fd5b61108d81611155565b50565b611098611219565b73ffffffffffffffffffffffffffffffffffffffff166110b661080d565b73ffffffffffffffffffffffffffffffffffffffff1614611115576110d9611219565b6040517f118cdaa700000000000000000000000000000000000000000000000000000000815260040161110c91906114bb565b60405180910390fd5b565b61111f611221565b600261113161112c611262565b61128d565b60000181905550565b600161114c611147611262565b61128d565b60000181905550565b60008060009054906101000a900473ffffffffffffffffffffffffffffffffffffffff169050816000806101000a81548173ffffffffffffffffffffffffffffffffffffffff021916908373ffffffffffffffffffffffffffffffffffffffff1602179055508173ffffffffffffffffffffffffffffffffffffffff168173ffffffffffffffffffffffffffffffffffffffff167f8be0079c531659141344cd1fd0a4f28419497f9722a3daafe3b4186f6b6457e060405160405180910390a35050565b600033905090565b611229611297565b15611260576040517f3ee5aeb500000000000000000000000000000000000000000000000000000000815260040160405180910390fd5b565b60007f9b779b17422d0df92223018b32b4d1fa46e071723d6817e2486d003becc55f0060001b905090565b6000819050919050565b600060026112ab6112a6611262565b61128d565b6000015414905090565b600080fd5b600073ffffffffffffffffffffffffffffffffffffffff82169050919050565b60006112e5826112ba565b9050919050565b6112f5816112da565b811461130057600080fd5b50565b600081359050611312816112ec565b92915050565b60006020828403121561132e5761132d6112b5565b5b600061133c84828501611303565b91505092915050565b6000819050919050565b61135881611345565b82525050565b6000602082019050611373600083018461134f565b92915050565b61138281611345565b811461138d57600080fd5b50565b60008135905061139f81611379565b92915050565b6000602082840312156113bb576113ba6112b5565b5b60006113c984828501611390565b91505092915050565b6113db816112da565b82525050565b60008115159050919050565b6113f6816113e1565b82525050565b600060808201905061141160008301876113d2565b61141e602083018661134f565b61142b604083018561134f565b61143860608301846113ed565b95945050505050565b6000819050919050565b600061146661146161145c846112ba565b611441565b6112ba565b9050919050565b60006114788261144b565b9050919050565b600061148a8261146d565b9050919050565b61149a8161147f565b82525050565b60006020820190506114b56000830184611491565b92915050565b60006020820190506114d060008301846113d2565b92915050565b600080604083850312156114ed576114ec6112b5565b5b60006114fb85828601611390565b925050602061150c85828601611390565b9150509250929050565b600082825260208201905092915050565b7f4c697374696e67206973206e6f74206163746976650000000000000000000000600082015250565b600061155d601583611516565b915061156882611527565b602082019050919050565b6000602082019050818103600083015261158c81611550565b9050919050565b7f4f6e6c792073656c6c65722063616e2063616e63656c00000000000000000000600082015250565b60006115c9601683611516565b91506115d482611593565b602082019050919050565b600060208201905081810360008301526115f8816115bc565b9050919050565b7f4e487b7100000000000000000000000000000000000000000000000000000000600052601160045260246000fd5b600061163982611345565b915061164483611345565b925082820261165281611345565b91508282048414831517611669576116686115ff565b5b5092915050565b600060408201905061168560008301856113d2565b611692602083018461134f565b9392505050565b6116a2816113e1565b81146116ad57600080fd5b50565b6000815190506116bf81611699565b92915050565b6000602082840312156116db576116da6112b5565b5b60006116e9848285016116b0565b91505092915050565b7f4e6f206665657320746f20776974686472617700000000000000000000000000600082015250565b6000611728601383611516565b9150611733826116f2565b602082019050919050565b600060208201905081810360008301526117578161171b565b9050919050565b600081905092915050565b50565b600061177960008361175e565b915061178482611769565b600082019050919050565b600061179a8261176c565b9150819050919050565b7f5769746864726177616c206661696c6564000000000000000000000000000000600082015250565b60006117da601183611516565b91506117e5826117a4565b602082019050919050565b60006020820190508181036000830152611809816117cd565b9050919050565b7f53656c6c65722063616e6e6f7420627579206f776e206c697374696e67000000600082015250565b6000611846601d83611516565b915061185182611810565b602082019050919050565b6000602082019050818103600083015261187581611839565b9050919050565b7f496e636f72726563742045544820616d6f756e74000000000000000000000000600082015250565b60006118b2601483611516565b91506118bd8261187c565b602082019050919050565b600060208201905081810360008301526118e1816118a5565b9050919050565b60006118f382611345565b91506118fe83611345565b9250828203905081811115611916576119156115ff565b5b92915050565b7f4e487b7100000000000000000000000000000000000000000000000000000000600052601260045260246000fd5b600061195682611345565b915061196183611345565b9250826119715761197061191c565b5b828204905092915050565b600061198782611345565b915061199283611345565b92508282019050808211156119aa576119a96115ff565b5b92915050565b7f455448207472616e73666572206661696c656400000000000000000000000000600082015250565b60006119e6601383611516565b91506119f1826119b0565b602082019050919050565b60006020820190508181036000830152611a15816119d9565b9050919050565b6000604082019050611a31600083018561134f565b611a3e602083018461134f565b9392505050565b7f416d6f756e74206d7573742062652067726561746572207468616e2030000000600082015250565b6000611a7b601d83611516565b9150611a8682611a45565b602082019050919050565b60006020820190508181036000830152611aaa81611a6e565b9050919050565b7f5072696365206d7573742062652067726561746572207468616e203000000000600082015250565b6000611ae7601c83611516565b9150611af282611ab1565b602082019050919050565b60006020820190508181036000830152611b1681611ada565b9050919050565b6000606082019050611b3260008301866113d2565b611b3f60208301856113d2565b611b4c604083018461134f565b949350505050565b6000611b5f82611345565b91507fffffffffffffffffffffffffffffffffffffffffffffffffffffffffffffffff8203611b9157611b906115ff565b5b60018201905091905056fea2646970667358221220e548f71d1f8126154c3dd1da1056634dc4bcc3a7675cd4e8b7c418e564e9845664736f6c634300081c0033",
  "linkReferences": {},
  "deployedLinkReferences": {}
}